:100000009CC00000B6C00000B4C00000B2C0000038
:10001000B0C00000AEC00000ACC00000AAC000002C
:10002000A8C00000A6C000000C9476090C94430AF6
:10003000A0C000009EC000009CC000009AC000004C
:1000400098C0000096C0000094C0000092C000005C
:10005000A9C100008EC000008CC000008AC0000052
:1000600088C000009BC0000084C0000082C0000067
:1000700080C000007EC000007CC000007AC000008C
:1000800078C0000076C0000074C0000072C000009C
:1000900070C000006EC000006CC000006AC00000AC
:1000A00068C0000066C0000064C000001C034C0073
:1000B000550046004100200043004400430020005A
:1000C000440065006D006F0000001A034C005500ED
:1000D0004600410020004C0069006200720061008F
:1000E0007200790000000403090409023E000201C5
:1000F00000C03209040000010202010005240010C2
:1001000001042402060524060001070582030800F5
:10011000FF09040100020A000000070504021000A4
:1001200005070583021000051201100102000008F6
:10013000EB03442001000102DC0111241FBECFEFBC
:10014000DAE0DEBFCDBF12E0A0E0B1E0EEE9F1E21F
:1001500002C005900D92AA3EB107D9F724E0AAEE9D
:10016000B2E001C01D92A738B207E1F7FBD20C94B0
:10017000CD1046CF25B1982F917090952160922394
:1001800095B92BB1982F90729095206292239BB9CC
:1001900098B19F778078892B88B908951F920F9224
:1001A0000FB60F9211242F933F934F935F936F934A
:1001B0007F938F939F93AF93BF93CF93DF93EF93EF
:1001C000FF93C091CE008091F402833009F470C097
:1001D000F0F4813009F455C0C0F1609170036C13E4
:1001E00038C0E091F302F0E0E45FFB4F6083809160
:1001F000F3028F5F8093F3028091000190910101DF
:1002000030D5909301018093000183E037C08530A1
:1002100009F494C008F472C0863009F498C088309C
:1002200009F4B3C0FF91EF91DF91CF91BF91AF91EE
:100230009F918F917F916F915F914F913F912F91FE
:100240000F900FBE0F901F901895609103036C17CD
:1002500011F087E013C0E091F302F0E0E45FFB4FA0
:1002600060838091F3028F5F8093F3028FEF9FEFA3
:10027000F8D4909301018093000181E08093F4020F
:10028000D1CFE091F302F0E0E45FFB4FC0838091B7
:10029000F3028F5F8093F30280910001909101013E
:1002A0006C2FDFD4909301018093000182E0E6CFB0
:1002B0008091BD038C1768F2E091F302F0E0E45FF7
:1002C000FB4FC0838091F3028F5F8093F302809194
:1002D0000001909101016C2FC4D49093010180938F
:1002E00000018091F302843009F09CCFC093F202A8
:1002F0009091F2029111C2CF85E0C0CFE091F3025C
:10030000F0E0E45FFB4FC0838091F3028F5F809346
:10031000F30280910001909101016C2FA2D490937F
:100320000101809300012091F3028091F20290E09C
:1003300004962817190609F075CFDECFD0E0DC2F20
:10034000CC27D093F102C093F00286E097CF809142
:10035000F0029091F1028C2B9093F1028093F002C5
:1003600020910001309101018091F0029091F10201
:100370002817390741F481E08093EF021092F402CC
:100380001092F3024FCF82E0F7CFC63021F481E024
:100390008093EE0247CFC53109F044CF81E08093CE
:1003A000ED0240CF1F920F920FB60F9211248F9340
:1003B0009F938CED9BE0909385008093840081E077
:1003C0008093EC029F918F910F900FBE0F901F9022
:1003D000189510928000E1E8F0E01082808185603D
:1003E0008083089584B7877F84BF0FB6F894A8955B
:1003F00080916000886180936000109260000FBE61
:1004000080E890E00FB6F8948093610090936100CB
:100410000FBEF7D349D45CD4DCDF209A289A559AD2
:100420005D9A3F9A479845C78CED9BE09093850075
:1004300080938400B09AEFE6F0E080818160808351
:100440000895EFE6F0E080818E7F8083089580EA52
:1004500091CE81E08FCE82E091E00E94F70B811176
:1004600002C081E887CE80E2FDCF82E091E00C946B
:10047000200D0895FC0180E0861301C0089591814C
:10048000905391839381905393838F5F3496F4CFED
:10049000CF92DF92FF920F931F93CF93DF93D82FCA
:1004A000C92F82E091E00E949D0C6C010D2F1C2F42
:1004B000D0E0C0E0FC2ECC16DD0661F4CD2809F4B6
:1004C000F12C8F2DDF91CF911F910F91FF90DF9035
:1004D000CF900895C630D10559F082E091E00E9496
:1004E000CC0C97FDEBCFF80181938F012196E2CFE1
:1004F00086E0F82EE3CFEF92FF920F931F93CF93F6
:100500007C018B01C0E08C2F90E08017910730F0C8
:10051000CF911F910F91FF90EF9008956091830408
:10052000709184048E0D9F1DFC01808190E00E94DB
:10053000CC0DCF5FE8CF609183047091840490E08C
:100540000C94CC0D0F931F93CF93DF93DC01F0E05D
:10055000E0E030E090E0062F0150110BE801E617D3
:1005600010F080E022C05D91213039F018F1223086
:1005700031F1233051F180E002C080E022E0992384
:1005800081F191E0643059F591E0332341F0932FEC
:100590008E010E1B1F0B31E00230110501F581E0C9
:1005A00031965FEF580F5230D0F6DF91CF911F9107
:1005B0000F910895541311C080E021E0E0CF515A0B
:1005C000543058F480E023E0DACF533030F4552330
:1005D000C1F29923E9F2392FD4CF82E0D0CF82E063
:1005E000DFCF3111D5CF932FDBCFCF93DF93EC014A
:1005F0006883498381EA8A83F901A90144595F4FDD
:1006000090E080E0208131812F3F320769F0A92FEF
:10061000B0E01296AA0FBB1FAC0FBD1F3C93208108
:1006200011962C939F5F8E5F33964E175F0751F79D
:100630008B83DF91CF9108950F931F93CF93DF9317
:10064000EC01688349832A83243A29F0213A19F07E
:1006500001151105A9F41B826B8170E06C5F7F4F5F
:10066000CE010DD3EB81EC0FFD2FF11D94839B8107
:10067000C90FD11D8D83DF91CF911F910F910895E7
:1006800082E08B831C830D83E7CFEF92FF920F9361
:100690001F93CF93DF937C01EB018B01085B1F4F0E
:1006A000699179916F3F760791F02091EA0230913C
:1006B000EB0240E0C70182D3019649F48091EA023F
:1006C0009091EB0201969093EB028093EA02C0179F
:1006D000D10731F7DF91CF911F910F91FF90EF90EC
:1006E0000895CF92DF92EF92FF920F931F93CF93D3
:1006F000DF938C01D0E0C0E080E5C82E81E0D82EE9
:100700009CE3E92E91E0F92EF80181818F9380819D
:100710008F93DF93CF93DF92CF920E94FC0DF8016D
:1007200082811F928F93FF92EF920E94FC0D8AE0CC
:1007300090E00E940F0E21960D5F1F4F8DB79EB760
:100740000A960FB6F8949EBF0FBE8DBFC432D10576
:10075000D9F6DF91CF911F910F91FF90EF90DF902D
:10076000CF900895CF93DF93CDB7DEB7CA59D109A3
:100770000FB6F894DEBF0FBECDBF34DE65EF72E07A
:1007800082E091E00E940B0D85EF92E0909384044B
:100790008093830481E0EEDC90E080E03ED360ED66
:1007A000762E780E40E950E061E070E0CE010196CF
:1007B00032D364E2CE0101965DDECE0101962FD3E5
:1007C0008111FBCFCE010196A5D348E450E065EC42
:1007D00070E084EC93E01FD3789484E093E0DFD260
:1007E00064EC73E084E093E050DF24E033E040E029
:1007F000672D81E793E0F9DEEE24E3944DE6442E85
:1008000041E0542E58EF252E51E0352E8EEB93E02B
:100810003FDE882379F020E0472D682F8EEB93E0B0
:1008200091DE813039F48091C003823A49F140F47D
:10083000813AD1F082E091E00E94870CBDD7E6CFEB
:10084000833A09F4D9C0843AA9F7CE01019662D35C
:100850008EEA92E00E94140E86E090E06CDEE5ECF9
:10086000F2E0FF93EF93C3C084E093E03ADF60913E
:10087000740370E06C5F7F4F81E793E03CDEDACF7A
:100880008091C3031F928F938091C2031F928F9315
:100890005F924F920E94FC0DA090C203B090C303E0
:1008A000BA24AB24BA24B50184E093E057D26C019A
:1008B000BF92AF922BE831E03F932F930E94FC0D43
:1008C000DF92CF92EEEAF1E0FF93EF930E94FC0DEE
:1008D0000FB6F894DEBF0FBECDBFD7FC5CC1B6012A
:1008E00084E093E04ED2682E1F928F93E5EDF1E005
:1008F000FF93EF930E94FC0D4601880C991C8C0C11
:100900009D1CC4018A5F9C4F4C010F900F900F906B
:100910000F90F12CF4016081611115C041E06C2D44
:10092000CE010196B3D286EE91E00E94140EF394AC
:10093000FF2009F455C06F1048C086E090E0FBDD51
:100940003F922F9254C06F3F99F3850122EA4E2DBA
:10095000CE018F569F4F70DEE394F8E0F093F402DF
:100960001092EE021092ED021092EC02C5D12AE034
:100970002A95F1F700C068E0CE018F569F4F54D101
:1009800066D13AE03A95F1F700C0A2D14DDD8091F1
:10099000EC02882311F010E007C08091EE02813054
:1009A00071F44FDDF39411E08091EC02882319F08B
:1009B0001092EC0246DD112309F4ACCFB9CF80913F
:1009C000ED02813021F73DDDEECFF61408F032CF95
:1009D00086E090E0B0DD84E192E00E94140E2ACF20
:1009E00085E190E0A8DD86E492E09F938F930E94DA
:1009F000FC0D0F900F901ECF8091C3031F928F9319
:100A00008091C2031F928F935F924F920E94FC0DC0
:100A1000A090C203B090C303BA24AB24BA24B5019A
:100A200084E093E09BD16C01BF92AF922BE831E060
:100A30003F932F930E94FC0DDF92CF92EEEAF1E0FC
:100A4000FF93EF930E94FC0D0FB6F894DEBF0FBE2C
:100A5000CDBFD7FCA0C0B60184E093E092D1682E50
:100A6000C601880F991F8C0D9D1DFC01EA5FFC4F8C
:100A7000C756DF4FF983E883C959D040F12CC756D8
:100A8000DF4FE881F981C959D0406081611114C0FC
:100A900040E06C2DCE010196F9D187E892E00E94EA
:100AA000140EF394FF2009F46EC0F61409F445CF38
:100AB000F61408F0BFCE8CCF6F3FA1F3850123EA77
:100AC0004E2DCE018F569F4FB7DDE39428E932E0DB
:100AD0003F932F930E94FC0D8E010F561F4F48012C
:100AE00098E0890E911C0F900F90F80181918F0171
:100AF0001F928F9329EA32E03F932F930E94FC0DBF
:100B00000F900F900F900F908016910671F78AE06A
:100B100090E00E940F0E98E09093F4021092EE0283
:100B20001092ED021092EC02E7D0EAE0EA95F1F7BC
:100B300000C068E0CE018F569F4F76D088D0FAE093
:100B4000FA95F1F700C0C4D06FDC8091EC028823E5
:100B500011F010E007C08091EE02813071F471DC79
:100B6000F39411E08091EC02882319F01092EC02CA
:100B700068DC112309F483CF95CF8091ED02813099
:100B800021F75FDCEECF85E190E0D5DC26E432E0B2
:100B90003F932F932CCF85E190E0CDDC8BE692E064
:100BA0001CCF292F33272230310571F02330310536
:100BB00081F021303105A1F482E190E028E231E0BA
:100BC000FA013183208308958EE390E02AEE30E02D
:100BD000F7CF99278130910571F038F0029771F0C5
:100BE00090E080E030E020E0EBCFE6EEF0E08491B2
:100BF00090E09F01E5CFEAECF0E0F9CFECEAF0E01D
:100C0000F6CF1092CD0087E68093CC0088E98093E0
:100C1000C90086E08093CA0008959091C80095FFAE
:100C2000FCCF8093CE0008950F931F93CF93DF9353
:100C3000EC018C01060F111DC017D10729F4DF91BB
:100C4000CF911F910F9108958991E7DFF5CF8091A2
:100C5000C80086FFFCCF8091C80080648093C800E4
:100C60000895962728E0AC01880F991F57FF04C00C
:100C700031E2832730E193272150A9F708950F939C
:100C80001F93CF93DF93EC018C01060F171F8FEF9B
:100C90009FEFC017D10729F4DF91CF911F910F91DA
:100CA00008956991DEDFF5CF84E43AD0009711F41E
:100CB00081E00895FC0120812068208383E430D006
:100CC0000097B1F3FC0120812064208380E0089527
:100CD00083E435D0009711F481E00895FC01208170
:100CE0002F7B208384E42BD00097B1F3FC0120817B
:100CF0002F77208380E0089583E421D0009711F4BA
:100D000081E00895FC0120812064208384E417D0D1
:100D10000097B1F3FC0120812068208380E00895D2
:100D20008254853048F4E82FF0E0EE0FFF1FE95DB4
:100D3000FE4F80819181089590E080E00895825473
:100D4000853048F4E82FF0E0EE0FFF1FE35EFE4F22
:100D500080819181089590E080E0089530E020E066
:100D6000FC01408151814617570711F4C9010895CC
:100D70002F5F3F4F03962432310591F78FEF9FEF9E
:100D800008959B01220F331F620F731F680F791F95
:100D900081E0FB0192819F3F09F480E008959C016E
:100DA00024593F4F6FEF7FEF4FEFFC01718360835A
:100DB0004283039682179307C1F70895CF92DF927B
:100DC000EF92FF921F93CF93DF93EC017B01142FDF
:100DD0006901C4DF412F50E08F3F980791F09C01DB
:100DE000220F331F280F391FC20FD31FC40FD51F67
:100DF0001A83DF91CF911F91FF90EF90DF90CF90FA
:100E000008959601220F331F2C0D3D1DC20FD31FD5
:100E1000F982E882EBCF0C947E100C948E10EF9246
:100E2000FF920F931F93CF93DF93EC017C0180E936
:100E3000E80EF11C01E010E08A8172DF009721F1D9
:100E4000FC0120813B81A80101C0440F3A95EAF7DB
:100E5000242B2083888164DF0097B1F0FC0120817E
:100E60003981A80101C0440F3A95EAF7242B208369
:100E70002496CE15DF0501F780E0DF91CF911F9119
:100E80000F91FF90EF90089581E0F7CFEF92FF92DE
:100E90001F93CF93DF93142F24E0629FE00111246E
:100EA000C80FD91F88814BDF7C018A8148DFFC0194
:100EB000E114F10469F1892B59F1898121E030E0D5
:100EC000A90101C0440F8A95EAF7D7018C9111233B
:100ED00091F0482B4C9380819B8101C0220F9A9501
:100EE000EAF7282B208310E0812FDF91CF911F910B
:100EF000FF90EF900895409548234C9380819B810B
:100F000001C0220F9A95EAF7209528232083ECCF81
:100F100011E0EACF0F931F93CF938C01C0E040E024
:100F20006C2FC801B3DF811103C0CF5FC432B9F7A2
:100F3000CF911F910F910895FC0180917F049091B2
:100F4000800486179707A0F06115710529F4909128
:100F5000E8009E779093E80090E06115710551F4E8
:100F6000911108C08091E80082FF35C080E00895AB
:100F7000BC01F2CF809178048823C9F18530C9F192
:100F80008091E80083FD31C08091E80082FDEACFC6
:100F90008091E80080FFE1CF2091F3008091F20082
:100FA000322F282F6115710519F02830310558F0BE
:100FB00091E02830310509F090E02091E8002E778B
:100FC0002093E800CACF81918093F10061507109AC
:100FD0002F5F3F4FE7CF80917804882341F0853021
:100FE00041F08091E80083FFBDCF81E0089582E069
:100FF000089583E00895FC0180917F04909180041E
:1010000086179707A0F06115710529F48091E80013
:101010008E778093E80090E06115710551F491118D
:1010200008C08091E80082FF36C080E00895BC01CE
:10103000F2CF809178048823D1F18530D1F180916D
:10104000E80083FD32C08091E80082FDEACF809104
:10105000E80080FFE1CF2091F3008091F200322F71
:10106000282F6115710519F02830310558F091E0ED
:101070002830310509F090E08091E8008E77809368
:10108000E800CACF84918093F100319661507109D4
:101090002F5F3F4FE6CF80917804882341F0853061
:1010A00041F08091E80083FFBCCF81E0089582E0A9
:1010B000089583E00895982F973028F08F708093DB
:1010C000E90081E008959093E900242F762F50E005
:1010D000981731F07091EC002091ED005091F000E4
:1010E00021FD02C09F5FE8CF3091EB003E7F30933F
:1010F000EB003091ED003D7F3093ED003091EB003F
:1011000031603093EB007093EC002093ED0050932E
:10111000F0002091EE0027FDE5CF80E008950F93C9
:101120001F93CF93DF93062FEC0110E0101302C042
:1011300081E00FC09881911103C01F5F2596F6CF03
:101140002C81A981BA816B81892F8F70873030F013
:1011500080E0DF91CF911F910F91089542E02230FE
:1011600008F046E0E8E0F0E020E0EA17FB0778F05E
:101170002295207F422B20E4629FB0011124991F09
:101180009927991F692B97DF8111D7CFE1CF2F5F67
:10119000EE0FFF1FEACF8091790487FF13C0809183
:1011A000E80082FF06C08091E8008B778093E8001A
:1011B00004C0809178048111F2CF08958091780461
:1011C0008823D9F38091E80080FFF8CF8091E80070
:1011D0008E77ECCF2091E4003091E50085E6909188
:1011E000EC0090FF06C09091E80090FF06C080E000
:1011F00008959091E80092FDFACF90917804992398
:1012000091F0953091F09091EB0095FD10C04091D8
:10121000E4005091E5002417350709F381509A0145
:10122000F1F684E0089582E0089583E0089581E076
:1012300008950F931F93CF93DF934BD052D0C8EDF7
:10124000D0E088818F7788838881806888838881CF
:101250008F7D888319BC10927804109274041092C8
:1012600076041092750400EE10E0F80180818B7F07
:10127000808388818160888342E060E080E01BDFBA
:10128000E1EEF0E080818E7F8083E2EEF0E080810D
:1012900081608083808188608083F80180818E7F77
:1012A0008083888180618883DF91CF911F910F9126
:1012B0000895E8EDF0E080818F7E8083E7EDF0E037
:1012C00080818160808384E082BF81E080937704A5
:1012D000B0CFE8EDF0E080818E7F80831092E20055
:1012E00008951092DA001092E10008951F920F9273
:1012F0000FB60F9211242F933F934F935F936F93E9
:101300007F938F939F93AF93BF93EF93FF938091BE
:10131000E10082FF0AC08091E20082FF06C0809156
:10132000E1008B7F8093E10046D28091DA0080FF5C
:1013300018C08091D80080FF14C08091DA008E7FA1
:101340008093DA008091D90080FF8FC080E189BD51
:1013500082E189BD09B400FEFDCF81E0809378046D
:1013600076D88091E10080FF18C08091E20080FF74
:1013700014C08091E2008E7F8093E2008091E200B1
:1013800080618093E2008091D80080628093D800D1
:1013900019BC85E0809378040ED28091E10084FF2F
:1013A00028C08091E20084FF24C080E189BD82E1F1
:1013B00089BD09B400FEFDCF8091D8008F7D809358
:1013C000D8008091E1008F7E8093E1008091E2005F
:1013D0008F7E8093E2008091E20081608093E20042
:1013E00080917404882309F446C084E080937804D3
:1013F000E2D18091E10083FF27C08091E20083FF6A
:1014000023C08091E100877F8093E10082E0809398
:101410007804109274048091E1008E7F8093E10043
:101420008091E2008E7F8093E2008091E2008061F3
:101430008093E20042E060E080E03DDE8091F000D9
:1014400088608093F000B7D1FF91EF91BF91AF9189
:101450009F918F917F916F915F914F913F912F91CC
:101460000F900FBE0F901F90189519BC1092780422
:101470000E94290276CF8091E30087FD02C081E0BF
:10148000B5CF83E0B3CF1F920F920FB60F92112406
:101490002F933F934F935F936F937F938F939F937C
:1014A000AF93BF93CF93EF93FF93C091E900CF70B9
:1014B0008091EC001092E9008091F000877F80938A
:1014C000F00078941BD01092E9008091F0008860C1
:1014D0008093F000C093E900FF91EF91CF91BF910D
:1014E000AF919F918F917F916F915F914F913F91BC
:1014F0002F910F900FBE0F901F9018951F93CF93B1
:10150000DF93CDB7DEB7AA970FB6F894DEBF0FBE54
:10151000CDBFE9E7F4E08091F100819324E0E13868
:10152000F207C9F70E9435028091E80083FF10C0DE
:101530008091790490917A04953009F4D8C000F52F
:10154000913009F48BC008F461C0933009F486C06F
:101550008091E80083FF0AC08091E800877F809334
:10156000E8008091EB0080628093EB00AA960FB6B2
:10157000F894DEBF0FBECDBFDF91CF911F910895CC
:10158000983009F4ECC0993009F4F6C0963001F7B0
:1015900080588230E8F680917B0490917C048C3DE9
:1015A00023E0920709F0C6C083E08A838AE2898338
:1015B0004FB7F894DE01139620E03EE051E2E32FAE
:1015C000F0E050935700E49120FF03C0E295EF70E4
:1015D0003F5FEF708E2F90E0EA3008F4A9C0C79605
:1015E0008D939D932F5F243151F74FBF8091E80079
:1015F000877F8093E8006AE270E0CE0101969CDC70
:101600008091E8008B778093E800A2CF803899F032
:10161000823809F09DCF80917D048F70873008F06B
:1016200097CF8093E9008091EB0085FB882780F9B4
:101630001092E90006C08091750490917604911192
:1016400082609091E800977F9093E8008093F1008A
:101650001092F1008091E8008E7732C0282F2D7F04
:1016600009F076CF8823E9F0823009F071CF8091BC
:101670007B04811120C080917D048F702FEF280F93
:10168000263008F065CF8093E9002091EB0020FF21
:1016900012C09330C9F48091EB0080628093EB001C
:1016A0000AC080917B04813009F052CF933009F059
:1016B00080E0809376041092E9008091E800877FB3
:1016C0008093E80068DD44CF9091EB0090619093A7
:1016D000EB0021E030E001C0220F8A95EAF7209369
:1016E000EA001092EA008091EB008860D7CF811168
:1016F0002FCF10917B041F778091E3008078812B9E
:101700008093E3008091E800877F8093E80043DDC9
:101710008091E80080FFFCCF8091E3008068809397
:10172000E30083E0111101C082E08093780410CFC0
:10173000C09656CF60917D0470917E04AE014F5FDC
:101740005F4F2FDABC01892B09F402CF9091E8009A
:10175000977F9093E80089819A814DDC51CF803842
:1017600009F0F6CE8091E800877F8093E8008091B1
:1017700074048093F1006ECF8111EACE90917B04C6
:10178000923008F0E5CE8091E800877F8093E800F2
:101790009093740400DD80917404882331F084E018
:1017A000809378040E942B02D3CE8091E30087FDC2
:1017B000F6CF81E0F5CF0895CF9380917804882308
:1017C00091F0C091E900CF708091EC0080FD0DC0D8
:1017D00080E0C82B1092E9008091E80083FD8EDE46
:1017E000CF70C093E900CF91089580E8F2CFCF93F6
:1017F000DF93EC01FC0170968BE0DF011D928A956E
:10180000E9F782E08C83898783E08E8761E0CE01EF
:10181000019685DC882361F061E0CE0106967FDCCD
:10182000882331F061E0CE010B96DF91CF9177CC28
:1018300080E0DF91CF9108950F931F93CF93209174
:101840007804243011F5FC0104891589268937892B
:10185000012B022B032BC9F0C62F81818F7080933F
:10186000E9008091E80085FF07C0C093F10080E0A7
:10187000CF911F910F9108958091E8008E7780930A
:10188000E800A8DC882389F3F3CF82E0F1CFCF937F
:10189000C82FFB01682F84859585CEDF811104C098
:1018A0008C2F90E0CF9108958FEF9FEFFBCF209189
:1018B0007804243051F5FC0144895589668977897B
:1018C000452B462B472B09F181818F708093E900CE
:1018D0008091F3009091F200892798278927892B1E
:1018E00011F480E008959091E8008091E8008E77EF
:1018F0008093E80095FDF5CF6DDC811107C09091D4
:10190000E8009E779093E800089582E00895209182
:101910007804243089F4FC014489558966897789E3
:10192000452B462B472B41F021812F702093E90056
:101930002091E80020FDBBCF089520917804243049
:1019400019F090E080E00895FC014489558966898A
:101950007789452B462B472BA1F386818F70809387
:10196000E9008091E80082FFECCF8091F300909134
:10197000F200892798278927009731F42091E80001
:101980002B772093E80008958091F3009091F20066
:10199000892798278927089520917804243019F001
:1019A0008FEF9FEF0895FC014489558966897789F7
:1019B000452B462B472BA1F386818F708093E9003E
:1019C0008091E80082FFECCF8091F3009091F200CB
:1019D000892798278927892B91F08091F10090E041
:1019E0002091F3003091F200232732272327232B65
:1019F00029F42091E8002B772093E80008958FEFD9
:101A00009FEFEECFFC0184859585C6DF97FF02C06E
:101A10008EEF9FEF0895FB012EE0DB011D922A95CA
:101A2000E9F723E0238327E43CE03187208722E0A5
:101A30003DE0338722879587848708950895089528
:101A4000CF93DF93EC018091E80083FF10C02881E1
:101A500080917D0490917E042817190641F48091AD
:101A60007A048132E1F030F4803209F44DC0DF9124
:101A7000CF910895823209F479C08332C1F7809101
:101A800079048132A1F78091E800877F8093E80094
:101A900082DB60917B04CE01DF91CF91D0CF80912A
:101AA0007904813A21F78091E800877F8093E800EC
:101AB0008091E80080FFFCCF8C899D89AE89BF8929
:101AC0008093F100492F5A2F6B2F77274093F10015
:101AD000AD01662777274093F1008B2F9927AA271E
:101AE000BB278093F100888D8093F100898D8093CE
:101AF000F1008A8D8093F1008091E8008E778093C9
:101B0000E800DF91CF9147CB80917904813209F0D1
:101B1000AECF8091E800877F8093E8008091E80055
:101B200082FF1FC03091F1002091F1009091F100EF
:101B30008091F1003C8B2D8B9E8B8F8B8091F100DF
:101B4000888F8091F100898F8091F1008A8F809138
:101B5000E8008B778093E8001EDBCE01DF91CF9108
:101B60006DCF809178048111D9CF81CF8091790494
:101B7000813209F07CCF8091E800877F8093E80074
:101B80000ADB80917B0490917C04998B888BCE0139
:101B9000DF91CF910C9439020F931F93CF93DF9372
:101BA000182F092FEB018B8181FD09C01FEF0FEF6B
:101BB000812F902FDF91CF911F910F91089582FF78
:101BC00014C02E813F818C819D81281739073CF4F8
:101BD000E881F981CF0101969983888310838E81F2
:101BE0009F8101969F838E83E3CFE885F985812FBE
:101BF0000995892BA1F3DACFB0E0A0E0E1E0FEE0A7
:101C0000A5C2AE014B5F5F4FFA0161917191AF01C7
:101C1000809183049091840432D0E2E0B3C2609159
:101C2000830470918404B8CF0F931F93CF93DF93F5
:101C3000E0918304F09184042381EC0110E000E042
:101C400021FD08C00FEF1FEF14C00995892B11F07B
:101C50000FEF1FEF89916091830470918404DB0181
:101C60001896ED91FC918111F0CF8AE00995892BAE
:101C700049F7C801DF91CF911F910F910895ABE013
:101C8000B0E0E4E4FEE052C27C013B018A01FC01C9
:101C900017821682838181FFBAC1CE0101965C0151
:101CA000F7019381F30193FD859193FF81913F01AA
:101CB000882309F449C1853239F493FD859193FF56
:101CC00081913F01853221F4B70190E065DFE8CFD3
:101CD000912C212C312CFFE1F31538F08B3211F1CE
:101CE00090F4803209F1833229F137FC3CC020EDB9
:101CF000280F2A3050F536FE20C08AE0989E200D2D
:101D00001124922E06C08D3291F0803371F76894C1
:101D100030F8F30193FD859193FF81913F0181118B
:101D2000DACF21C0689431F8689432F8F2CF689421
:101D300033F8EFCF689434F8ECCFEAE02E9E200D14
:101D40001124222E689435F8E4CF8E3229F436FC23
:101D5000FBC0689436F8DDCF8C3619F4689437F8F8
:101D6000D8CF8836B1F2982F9F7D95549330D8F014
:101D7000833691F18337B1F1833509F05EC02801D4
:101D8000F2E04F0E511CF801C080D180692D70E047
:101D900036FC02C06FEF7FEFC6013CD14C01689466
:101DA00037F882010AC00C5F1F4FFFE3F9838824D4
:101DB0008394912C6501E89437F833FE2AC0522CA5
:101DC0008114910459F5552009F46ACFB70180E2D6
:101DD00090E0E2DE5A94F7CFF801808189830E5FAC
:101DE0001F4FE5CF2801F2E04F0E511CF801C080D3
:101DF000D180692D70E036FC02C06FEF7FEFC60125
:101E000014D14C018201D7CFB70180E290E0C4DE4B
:101E10002A942814190409F0B8F7D1CFF60137FC39
:101E2000859137FE81916F01B70190E0B5DE5110C9
:101E30005A94F1E08F1A9108C3CF843619F089368D
:101E400009F073C0F80137FE67C06081718182813B
:101E500093810C5F1F4FF32DFF763F2E97FF09C034
:101E600090958095709561957F4F8F4F9F4F6894A7
:101E700037F82AE030E0A501E3D0C82ECA188C2C30
:101E8000432C36FE0CC0E89440F8C91440F434FEEC
:101E900005C032FC03C0F32DFE7E4F2E892C44FE7C
:101EA00090C0FE01EC0DF11D8081803309F082C0ED
:101EB000242D297E422E842D8870582E43FC8FC0FD
:101EC00040FE89C09C2C821418F42C0C922C98187B
:101ED00044FE8BC0B70180E390E05EDE42FE08C0A6
:101EE00088E790E041FE02C088E590E0B70154DE4B
:101EF000C91408F486C0CA94D12C9FEFC91AD90A14
:101F0000CA0CDB1CF60182916F01B70190E044DE40
:101F1000AC14BD04B9F757CF60817181072E000C56
:101F2000880B990B0E5F1F4F96CFD32CE894D4F8F3
:101F30002AE030E0853731F1232D297FD22E8F36EC
:101F4000F9F040F48835A1F0F701868197812B964E
:101F5000E2E108C1803749F08837B1F7D4FE02C00A
:101F60006894D2F820E130E00DC06894D4F8F6CF40
:101F700034FE03C0822F8660D82E20E132E002C0FA
:101F800028E030E0F801D7FE0EC0608171818281C7
:101F900093810C5F1F4FA50153D0C82ECA183D2C4A
:101FA000E89437F86CCF6081718190E080E00E5F3B
:101FB0001F4FF1CF42FC02C083947DCF8394839462
:101FC0007ACF842D867809F476CFF6CFB70180E2F8
:101FD00090E0E2DD83948214C8F3512C79CF522C27
:101FE0005818821408F474CFF8CF842D867809F439
:101FF0007FCF8BE241FE80E247FC8DE2B70190E0AB
:1020000076CFB70180E390E0C7DD9A9471CF8FEF70
:102010009FEF9DCFFC010590615070400110D8F7F3
:10202000809590958E0F9F1F0895FC016150704020
:1020300001900110D8F7809590958E0F9F1F0895FD
:10204000FA01AA27283051F1203181F1E8946F93E9
:102050006E7F6E5F7F4F8F4F9F4FAF4FB1E03ED08F
:10206000B4E03CD0670F781F891F9A1FA11D680F2D
:10207000791F8A1F911DA11D6A0F711D811D911D60
:10208000A11D20D009F468943F912AE0269F1124D5
:102090003019305D3193DEF6CF010895462F477039
:1020A000405D4193B3E00FD0C9F7F6CF462F4F7094
:1020B000405D4A3318F0495D31FD4052419302D0F2
:1020C000A9F7EACFB4E0A695979587957795679598
:1020D000BA95C9F700976105710508959B01AC0198
:1020E0000A2E06945795479537952795BA95C9F7BF
:1020F000620F731F841F951FA01D0895DC01CB0183
:10210000FC01F999FECF06C0F2BDE1BDF89A319607
:1021100000B40D9241505040B8F70895F999FECFA0
:1021200092BD81BDF89A992780B508952F923F926C
:102130004F925F926F927F928F929F92AF92BF92D7
:10214000CF92DF92EF92FF920F931F93CF93DF9383
:10215000CDB7DEB7CA1BDB0B0FB6F894DEBF0FBEE0
:10216000CDBF09942A88398848885F846E847D842D
:102170008C849B84AA84B984C884DF80EE80FD802F
:102180000C811B81AA81B981CE0FD11D0FB6F894A5
:0E219000DEBF0FBECDBFED010895F894FFCF66
:10219E00FFFF008310000001041000000182080000
:1021AE0000010000000000000000000000250028D3
:1021BE00002B002E003100240027002A002D0030B5
:1021CE00004275666665723A2025752025752000D9
:1021DE00576176656C656E6774683A2025640A00EF
:1021EE00496E646578202575207C20574C3A202551
:1021FE0075207C20536C617665733A2000427974A9
:10220E0065732066726F6D206275666665723A2020
:10221E002530325820253032580A00436F6D7072C7
:10222E00696D656E746F206465206F6E64612065E4
:10223E0078747261C3AD646F3A2025640A005065EC
:10224E007371756973612070656C6F20636F6D704B
:10225E0072696D656E746F206465206F6E64613A8D
:10226E002025640A006E756D5F646576696365731B
:10227E003A2025640A004163656E646575206E6FB1
:10228E00206D6173746572005375636573736F208F
:10229E00656D20746F646F73206F7320646576694B
:1022AE00636573004572726F20646520636F6D7590
:1022BE006E696361C3A7C3A36F2F6163656E6469A3
:1022CE006D656E746F20656D20616C67756D206431
:1022DE006576696365004E656E68756D206465761A
:1022EE0069636520726573706F6E64657520636FC8
:1022FE0072726574616D656E746500436F6D707298
:10230E00696D656E746F206465206F6E6461206107
:10231E007573656E746500417061676F75206E6FC1
:10232E00206D617374657200427566666572204D2C
:10233E006F6E7461646F3A20002530325800417020
:10234E0061676F7520746F646F73206E6F206D619F
:10235E0073746572005375636573736F20656D20BA
:10236E00746F646F73206F73206465766963657331
:0A237E00202D20414C4C204F46005A
:00000001FF
